:100000000C9434000C9445000C9445000C9445006D
:100010000C9445000C9445000C9445000C9445004C
:100020000C9445000C9445000C9445000C9445003C
:100030000C9445000C9445000C9445000C9445002C
:100040000C9445000C9445000C9445000C9445001C
:100050000C9445000C9445000C9445000C9445000C
:100060000C9445000C94450011241FBECFEFD8E03E
:10007000DEBFCDBF0E9440000C943E00F894FFCF3D
:0A008000259A52985A9A89B1FECFD2
:04008A000C940000D2
:00000001FF
