:100000000C9434000C9440000C945D000C945D0042
:100010000C945D000C945D000C945D000C945D00EC
:100020000C945D000C945D000C945D000C945D00DC
:100030000C945D000C945D000C945D000C945D00CC
:100040000C945D000C945D000C945D000C945D00BC
:100050000C945D000C945D000C945D000C945D00AC
:100060000C945D000C945D0011241FBECFEFD8E00E
:10007000DEBFCDBF0E9452000C943E00F894FFCF2B
:100080001F920F920FB60F9211248F939F9395B1E9
:1000900080E2892785B99F918F910F900FBE0F90B5
:0400A0001F90189500
:1000A400259A52985A9AE9E6F0E08081826080832A
:0600B400E89A7894FFCFEA
:0400BA000C940000A2
:00000001FF
