:100000000C9434000C944A000C944A000C944A005E
:100010000C944A000C944A000C944A000C944A0038
:100020000C944A000C944A000C944A000C944A0028
:100030000C944A000C944A000C944A000C944A0018
:100040000C944A000C944A000C944A000C944A0008
:100050000C944A000C944A000C944A000C944A00F8
:100060000C944A000C944A0011241FBECFEFD8E034
:10007000DEBFCDBF0E9440000C943E00F894FFCF3D
:10008000259A52985A9A90E24A9BFECF85B18927C9
:0400900085B9FACF65
:040094000C940000C8
:00000001FF
